:10000000803102288731E42F80300800F11B092855
:100010000A280B2816287009F2007109F300F20A69
:100020000319F30A7208F0007308F1000800823027
:10003000F400DE30890B1A28F40B1A28AE30AF31E9
:1000400098278031D530AF31982780318030AF315B
:1000500098278031A830AF31982780313F30AF31B9
:1000600098278031D330AF31982780310030AF31BD
:10007000982780314030AF31982780318D30AF31B3
:10008000982780311430AF31982780312030AF313C
:10009000982780310030AF3198278031A130AF31BF
:1000A00098278031C830AF3198278031DA30AF31AE
:1000B000982780311230AF31982780318130AF31AD
:1000C00098278031CF30AF3198278031D930AF3188
:1000D00098278031F130AF3198278031DB30AF3154
:1000E000982780314030AF3198278031A430AF312C
:1000F00098278031A630AF31982780312E30AF312C
:1001000098278031AF30AF3198278031E430F0004C
:100110009B30F100A031642080318230F400DE3069
:10012000890B9028F40B9028080040013108350213
:10013000F0003208363BF100803106208031710832
:100140004001D3007008D20033083702F0003408B1
:10015000383BF10080310620803171084001D50024
:100160007008D4003208C5003108C4003408C70044
:100170003308C6003608803ABA003208803A3A029C
:10018000031DC428310835020318C728C828CE2803
:10019000FF304001CE00FF30CF00D32801304001B6
:1001A000CE000030CF003808803ABA003408803AD8
:1001B0003A02031DDD28330837020318E028E1283E
:1001C000E728FF304001D000FF30D100EC2801309B
:1001D0004001D0000030D1005308803ABA005508E1
:1001E000803A3A02031DF62854085202031CF928EB
:1001F000FA287C2940015508BB005408BA00BA35DA
:10020000BB0D52083A02CA0053083B3BCB00CC015D
:10021000CB1BCC034C08CD00C801C9016D2940019E
:100220004508A5004408A4004708A7004608A60002
:100230003908A800A531222580314001CD1F212990
:1002400022293E295508BB005408BA00BA35BB0D17
:100250003A08BC003B08BD000030BD1BFF30BE00AB
:10026000BF003C08CA073D08CB3D3E08CC3D3F08D7
:10027000CD3D4E08C4074F08C53D69295308BB0052
:100280005208BA00BA35BB0D5508BD005408BC0071
:10029000BC35BD0D3A083C02BE003B083D3BBF00EB
:1002A0003E08C0003F08C1000030C11BFF30C20043
:1002B000C3004008CA074108CB3D4208CC3D430873
:1002C000CD3D4E08C4074F08C53D5008C60751082C
:1002D000C73D0130C8070030C93D5308803ABA0015
:1002E0004908803A3A02031D772948085202031848
:1002F0007A297B290F29FA2940015308BB005208AB
:10030000BA00BA35BB0D54083A02CA0055083B3B47
:10031000CB00CC01CB1BCC034C08CD00C801C901DC
:10032000EC2940014508A5004408A4004708A7009F
:100330004608A6003908A800A531222580314001D1
:10034000CD1FA329A429C0295308BB005208BA0015
:10035000BA35BB0D3A08BC003B08BD000030BD1BE0
:10036000FF30BE00BF003C08CA073D08CB3D3E0839
:10037000CC3D3F08CD3D5008C6075108C73DE82990
:100380005508BB005408BA00BA35BB0D5308BD0070
:100390005208BC00BC35BD0D3A083C02BE003B080B
:1003A0003D3BBF003E08C0003F08C1000030C11BFC
:1003B000FF30C200C3004008CA074108CB3D4208D5
:1003C000CC3D4308CD3D4E08C4074F08C53DBB2971
:1003D0000130C8070030C93D5508803ABA004908C5
:1003E000803A3A02031DF629480854020318F929F5
:1003F000FA29912908004001CC01CD01CE01CF019D
:10040000BE01BF0165080739031D072A082A102B02
:100410006408B600B7013608F0003708F10008306C
:10042000F6000030F7006508B800B9013808F80098
:100430003908F900A231162281317708F3007608D5
:10044000F200AF31E127813171084001C30070082B
:10045000C20066083502F000F101031CF1034308F5
:10046000F3004208F200AF31E12781317008043E09
:100470004001C6000030713DC700CC01CD01F62A15
:10048000CE01CF01E52A6408B600B7013608F000B6
:100490003708F1004D08F3004C08F200AF31E127B6
:1004A0008131700840016207B8007108633DB900EE
:1004B00046083807BA004708393DBB003A084E07DE
:1004C00084003B084F3D85000008BC00BD013C088E
:1004D000BE003D08BF00D0010130B6000030B700BB
:1004E000500A742AB635B70D890B722A3E083605B4
:1004F000B8003F083705B900380839040319812AC4
:10050000822AD02A6808031D862A872AAC2A4E0828
:100510003107A4004F08323DA5005008B600B701CE
:100520004D08B9004C08B800B835B90DB835B90D4B
:10053000B835B90D36083807BA003708393DBB0061
:1005400033083A07A60034083B3DA700A801A80AD3
:10055000A53122258131D62A4E083107A4004F0843
:10056000323DA5005008B600B7014D08B9004C084F
:10057000B800B835B90DB835B90DB835B90D36086C
:100580003807BA003708393DBB0033083A07A600E0
:1005900034083B3DA700A801A53122258131D62A88
:1005A0006808031DD42AD52A872AAC2A01304001C5
:1005B000B6003608D00708305002031CE02AE12AB2
:1005C0006C2A0130CE070030CF3D6408B600B70179
:1005D00037084F02031DEE2A36084E02031CF12A8B
:1005E000F22A432A0130CC070030CD3D0830F60016
:1005F0000030F7006508B600B7013608F800370884
:10060000F900A23116228131770840014D02031D05
:100610000B2B76084C02031C0E2B0F2B402AE32BCE
:100620000830F6000030F7006408B600B70136085D
:10063000F0003708F1006508B800B9013808F20089
:100640003908F300AF31E12781317108F9007008F2
:10065000F800A2311622813177084001C3007608E4
:10066000C20066083502F000F101031CF1034308E3
:10067000F3004208F200AF31E12781317008043EF7
:100680004001C6000030713DC70062084607840083
:100690006308473D85000008B600B7013608C00072
:1006A0003708C1000730C4000030C500C801C901C7
:1006B000D62B4001CA01CB01C42B01304001B6004A
:1006C0000030B700440A662BB635B70D890B642B92
:1006D00040083605B80041083705B9003808390424
:1006E0000319732B742B9C2B6808031D782B792B13
:1006F0008B2B48083107A4004908323DA5004A0861
:100700003307A6004B08343DA700A801A80AA5316D
:1007100022258131A22B48083107A4004908323D27
:10072000A5004A083307A6004B08343DA700A801DE
:10073000A53122258131A22B6808031DA02BA12BF6
:10074000792B8B2BFF304001C407FF30C53DC51FFF
:10075000AA2BAB2BC02B0730C4000030C5000130E2
:10076000C6070030C73D6208460784006308473D5E
:1007700085000008B600B7013608C0003708C10080
:100780000130CA070030CB3D4B08803AB6008030BC
:100790003602031DCD2B65084A02031CD02BD12B3A
:1007A0005D2B01304001C8070030C93D4908803A3F
:1007B000B60080303602031DDF2B64084802031C9C
:1007C000E22BE32B592B08000034003400340034B2
:1007D0000034003400340034003400340034003479
:1007E0000034003400340034003400340034003469
:1007F0000034003400340034003400340034003459
:100800000034003400340034003400340034003448
:100810000034003400340034003400340034003438
:100820000034003400340034003400340034003428
:100830000034003400340034003400340034003418
:100840000034003400340034003400340034003408
:1008500000340034003400340034003400340034F8
:1008600000340034003400340034003400340034E8
:1008700000340034003400340034003400340034D8
:1008800000340034003400340034003400340034C8
:1008900000340034003400340034003400340034B8
:1008A00000340034003400340034003400340034A8
:1008B0000034003400340034003400340034003498
:1008C0000034003400340034003400340034003488
:1008D000003400340034003400340034FC34FC3480
:1008E000FC340C340C340C340C340C340C34003424
:1008F0000034C034C034C0348034C034C034C03458
:10090000C034803400348034C034C034C034C03487
:1009100080340034003400340034FE34FE34FE34BD
:100920008034C034C034C034C034C0348034003467
:1009300000340034003480348034C034C034C034D7
:10094000C034C03480340034003400340034803487
:100950008034C034C034C034C0348034FE34FE34FB
:10096000FE3400340034003480348034C034C03469
:10097000C034C0348034FE34FE34FE3400340034DD
:10098000003480348034C034C034C034C034C03407
:100990008034003400340034003480348034C03477
:1009A000C034C034C0348034FE34FE34FE340034ED
:1009B0000034003400340034003400340034003497
:1009C0000034003400340034003400340034003487
:1009D000003400340034003400340034FF34FF3479
:1009E000FF34833483348334833483348034003459
:1009F0000034FF34FF34FF34013400340034013458
:100A0000FF34FF34FF340134003400340134FF3448
:100A1000FF34FF34003400340034FF34FF34FF343B
:100A2000C134803480348034C134FF34FF343E34E8
:100A3000003400343E34FF34FF34CD348C348C34F5
:100A40008C348F34CF34CF34003400343E34FF3410
:100A5000FF34C134803480348034C134FF34FF34F7
:100A6000FF34003400343E34FF34FF34C13480346A
:100A700080348034C134FF34FF34FF340034003418
:100A80003E34FF34FF34CD348C348C348C348F348A
:100A9000CF34CF34003400343E34FF34FF34C1341B
:100AA000803480348034C134FF34FF34FF34003468
:100AB0000034003400340034003400340034003496
:100AC0000034003400340034003400340034003486
:100AD0000034003400340034003400340134013474
:100AE000013401340134013401340134013400345F
:100AF0000034013401340134003400340034003453
:100B00000134013401340034003400340034013441
:100B10000134013400340034003401340134013430
:100B20000034013401340134013400340034003421
:100B30000034003400340034003401340134013412
:100B40000134013401340034003400340034003402
:100B500001340134013401340134003401340134EE
:100B600001340034003400340034013401340134E1
:100B700001340134003401340134013400340034D0
:100B800000340034003401340134013401340134C0
:100B900001340034003400340034003401340134B2
:100BA000013401340134003401340134013400349F
:100BB0000034003400340034003400340034003495
:100BC0000034003400340034003400340034003485
:100BD00000340034003400340034FC34FC34FC3481
:100BE00000340034003400340034003400348034E5
:100BF0008034C034C034C034C034C0348034003495
:100C000000340034FE34FE34FE348034C034C0344A
:100C1000C034C034C0348034003400340034003474
:100C200080348034C034C034C034C034C0348034E4
:100C30008034003400340034C034C034C0348034D4
:100C4000C034C034C03400340034003480348034C4
:100C5000C034C034C034C034C034803400340034B4
:100C6000C034C034F834F834F834C034C034C0343C
:100C70000034003480348034C034C034C034C034D4
:100C8000C03480348034003400340034C034C03484
:100C9000C0348034C034C034C0344034C034C03474
:100CA000803400340034003400348034C034C03424
:100CB0004034003400340034003400340034003454
:100CC0000034003400340034003400340034003484
:100CD00000340034003400340034FF34FF34FF3477
:100CE0008034803480348034803400347034F9347B
:100CF000FD349C348C348C34CC34FF34FF34FF34DA
:100D000000340034FF34FF34FF34C1348034803485
:100D10008034C134FF34FF343E34003400343E3478
:100D2000FF34FF34C134803480348034C134FF3424
:100D3000FF343E3400340034FF34FF34FF340334D6
:100D4000013401340134003400347034F934FD349A
:100D50009C348C348C34CC34FF34FF34FF34003476
:100D600000340034FF34FF34FF3480348034803466
:100D700000343E34FF34FF34C13480348034803456
:100D8000C134FF34FF343E3400340034FF34FF34C8
:100D9000FF340334013401340134003403340F349C
:100DA0003F34FE34F834C034FC34FF341F34033491
:100DB0000034003400340034003400340034003493
:100DC0000034003400340034003400340034003483
:100DD0000034003400340034003401340134013470
:100DE000013401340134013401340034003400345E
:100DF000013401340134013400340134013401344C
:100E0000003400340134013401340034013401343D
:100E10000134013400340034003400340034003430
:100E2000003400340134013401340134013400341D
:100E3000003400340034003401340134013400340F
:100E40000034003400340034003400340034013401
:100E500001340134013400340134013401340034EC
:100E600000340034003401340134013401340134DD
:100E700000340034003400340134013401340134CE
:100E800001340034003400340034003401340134BF
:100E900001340034003400340034003400340034B1
:100EA00018341D341F340F3403340034003400343C
:100EB0000034003400340034003400340034003492
:100EC0000034003400340034003400340034003482
:100ED0000034003400340034003400340034003472
:100EE0000034003400340034003400340034003462
:100EF0000034003400340034003400340034003452
:100F00000034003400340034003400340034003441
:100F10000034003400340034003400340034003431
:100F20000034003400340034003400340034003421
:100F30000034003400340034003400340034003411
:100F40000034003400340034003400340034003401
:100F500000340034003400340034003400340034F1
:100F600000340034003400340034003400340034E1
:100F700000340034003400340034003400340034D1
:100F800000340034003400340034003400340034C1
:100F900000340034003400340034003400340034B1
:100FA00000340034003400340034003400340034A1
:100FB0000034003400340034003400340034003491
:100FC0000034003400340034E43084008330850081
:100FD000F03086002B3087000430FF0000309F3156
:100FE0005F278731E201E301E401E501E601E70162
:100FF000E801E901EA01EB01EC014001A531F82D1E
:101000001034103420345F340034003400340034A1
:101010000034003400340034003400340034003430
:101020000034003400340034003400340034003420
:101030000034003400340034003400340034003410
:101040000034003400340034003400340034003400
:10105000F834FC34FC34FC34F8340034003400340C
:1010600000340034003400340034003400340034E0
:101070000034733473347334003400340034003477
:1010800000340034003400340034003400340034C0
:101090001E343E343E340034003400343E343E349A
:1010A0001E34003400340034003400340034003482
:1010B0000034003400340034003400340034003490
:1010C00000340034003400340034303430343034F0
:1010D000FE34FE343034303430343034FE34FE34B8
:1010E000303430343034003400340C340C340C34AC
:1010F0007F347F340C340C340C340C347F347F3424
:101100000C340C340C340034003400340034F0342B
:10111000F8349834FE3498349834FE349834983443
:1011200018340034003400340034003400341834EF
:10113000193419347F34193419347F3419341F3475
:101140000F340034003400340034003400340034F0
:101150003834383438348034C034E034703438347F
:1011600000340034003400340034003400340034DF
:101170001C340E340734033401341C341C341C3446
:101180000034003400340034003400340034383487
:10119000FC34C434C434FC343834003400340034F7
:1011A00080340034003400340034003400341E3401
:1011B0003F342134213433343F341E341E34373429
:1011C000233400340034003400340034003400345C
:1011D00020343C343C341C340034003400340034BB
:1011E000003400340034003400340034003400345F
:1011F000003400340034003400340034003400344F
:10120000003400340034003400340034003400343E
:10121000C034E034F03438341C340C340434043436
:10122000003400340034003400340034003400341E
:10123000033407340F341C34383430342034203431
:1012400000340034003400340034003400340034FE
:10125000043404340C341C343834F034E034C034F6
:1012600000340034003400340034003400340034DE
:1012700020342034303438341C340F3407340334F1
:1012800000340034003400340034003480348834B6
:101290009034E034E034FC34FC34E034E034903416
:1012A0008834803400340034003400340134113484
:1012B0000934073407343F343F34073407340934E2
:1012C000113401340034003400340034003400346C
:1012D000803480348034F034F0348034803480348E
:1012E000003400340034003400340034003400345E
:1012F0000134013401340F340F340134013401342A
:10130000003400340034003400340034003400343D
:10131000003400340034003400340034003400342D
:10132000003400340034003400340034003400341D
:1013300040347834783438340034003400340034A5
:10134000003400340034003400340034003480347D
:1013500080348034803480348034803480348034ED
:10136000803400340034003400340034003401345C
:1013700001340134013401340134013401340134C5
:1013800001340034003400340034003400340034BC
:1013900000340034003400340034003400340034AD
:1013A000003400340034003400340034003400349D
:1013B00000343834383438340034003400340034E5
:1013C000003400340034003400340034003400347D
:1013D000003400340034003400348034C034E0344D
:1013E000703438341C340034003400340034203479
:1013F000303438341C340E340734033401340034B0
:101400000034003400340034003400340034F83444
:10141000FC34FC3404348434E4347434FC34FC345C
:10142000F8340034003400340034003400341F3405
:101430003F343F342E342734213420343F343F347A
:101440001F3400340034003400340034003460347D
:1014500060346034F034FC34FC3400340034003444
:1014600000340034003400340034003400342034BC
:10147000203420343F343F343F342034203420346F
:1014800000340034003400340034003400341834A4
:101490001C341C34043404348434CC34FC347834A8
:1014A000303400340034003400340034003430343C
:1014B00038343C342E34273423342134383438340F
:1014C000383400340034003400340034003418342C
:1014D0001C341C34843484348434CC347C347834E8
:1014E0003034003400340034003400340034183414
:1014F0003834383421342134213433343E341E34EA
:101500000C340034003400340034003400348034AF
:10151000C034603430341834FC34FC34FC340034CF
:101520000034003400340034003400340034033418
:1015300003340334233423343F343F343F342334DF
:101540002334003400340034003400340034FC34DC
:10155000FC34FC348434843484348434843404345B
:1015600004340034003400340034003400341934BE
:101570003934393421342134213433343F341F3465
:101580000E34003400340034003400340034E034CD
:10159000F034F8349C348C3484348434843480348F
:1015A00000340034003400340034003400341F347C
:1015B0003F343F3421342134213421343F343F340B
:1015C0001F340034003400340034003400343C3420
:1015D0003C343C3404340434043404348434FC3463
:1015E000FC347C34003400340034003400340034E3
:1015F0000034003438343C343E340734033401348E
:1016000000340034003400340034003400347834C2
:101610007C34FC34C434C43484348434FC347C34AA
:1016200078340034003400340034003400341E3484
:101630003E343F3421342134233423343F343E3488
:101640001E34003400340034003400340034F834E4
:10165000FC34FC348434843484348434FC34FC34EA
:10166000F8340034003400340034003400340034E2
:101670000134213421342134313439341F340F34CE
:1016800007340034003400340034003400340034B3
:10169000003400347034703470340034003400345A
:1016A000003400340034003400340034003400349A
:1016B000003400340E340E340E3400340034003460
:1016C000003400340034003400340034003400347A
:1016D000003400347034703470340034003400341A
:1016E000003400340034003400340034003400345A
:1016F000003410341E341E340E34003400340034F0
:1017000000340034003400340034003400348034B9
:10171000C034E034703438341C340E3406340234AF
:101720000034003400340034003400340034013418
:10173000033407340E341C3438347034603440348D
:101740000034003400340034003400346034603439
:1017500060346034603460346034603460346034E9
:10176000603460340034003400340034063406340D
:101770000634063406340634063406340634063499
:1017800006340634003400340034003400340234AB
:1017900006340E341C3438347034E034C0348034B1
:1017A0000034003400340034003400340034403459
:1017B0006034703438341C340E340734033401344C
:1017C0000034003400340034003400340034183461
:1017D0001C340C340E3406348634CE34FC347C3461
:1017E0003834003400340034003400340034003421
:1017F00000340034003473347334733400340034F0
:101800000034003400340034003400340034FC343C
:10181000FE34FE3402340234C234C234C234FE34E4
:10182000FE34FC34003400340034003400343F34DF
:101830003F347F34603460346334633463346334FE
:101840004334033400340034003400340034E034D2
:10185000F034F8341C340C340C341C34F834F034C8
:10186000E0340034003400340034003400343F34B9
:101870003F343F3402340234023402343F343F34C4
:101880003F34003400340034003400340034043475
:10189000FC34FC34FC34843484348434FC34FC3430
:1018A0007834003400340034003400340034203400
:1018B0003F343F343F342134213421343F343F34EA
:1018C0001E34003400340034003400340034F0346A
:1018D000F834FC340C340434043404341C341C3424
:1018E00018340034003400340034003400340F3431
:1018F0001F343F34303420342034203438343834EA
:10190000183400340034003400340034003404341B
:10191000FC34FC34FC34043404340C34FC34F8342B
:10192000F034003400340034003400340034203407
:101930003F343F343F342034203430343F341F347C
:101940000F340034003400340034003400340434E4
:10195000FC34FC34FC34843484348434C434CC34D7
:101960001C3400340034003400340034003420349B
:101970003F343F343F342134213421342334333451
:10198000383400340034003400340034003404347B
:10199000FC34FC34FC34843484348434C434CC3497
:1019A0001C3400340034003400340034003420345B
:1019B0003F343F343F3421340134013403340334A1
:1019C0000034003400340034003400340034F03487
:1019D000F834FC340C340434043404343C343C34E3
:1019E00038340034003400340034003400340F3410
:1019F0001F343F3430342034223422343E343E34D9
:101A00003E34003400340034003400340034FC34FC
:101A1000FC34FC34803480348034FC34FC34FC34BA
:101A200000340034003400340034003400343F34D7
:101A30003F343F340134013401343F343F343F34C8
:101A400000340034003400340034003400340034F6
:101A500004340434FC34FC34FC34043404340034E2
:101A600000340034003400340034003400340034D6
:101A7000203420343F343F343F3420342034003489
:101A800000340034003400340034003400340034B6
:101A900000340034003404340434FC34FC34FC34AA
:101AA0000434043400340034003400341E341E3452
:101AB0003E3420342034203420343F343F341F342B
:101AC0000034003400340034003400340034043472
:101AD000FC34FC34FC34C034E03470343C341C340A
:101AE0000C3400340034003400340034003420342A
:101AF0003F343F343F34033407340E343C343834FD
:101B00003034003400340034003400340034043401
:101B1000FC34FC34FC34043400340034003400342D
:101B200000340034003400340034003400342034F5
:101B30003F343F343F342034203420343034383480
:101B40003C34003400340034003400340034FC34BD
:101B5000FC34FC347834F034E034F0347834FC3441
:101B6000FC34FC34003400340034003400343F349E
:101B70003F343F34003400340134003400343F3407
:101B80003F343F3400340034003400340034FC343B
:101B9000FC34FC347034E034C03480340034FC3421
:101BA000FC34FC34003400340034003400343F345E
:101BB0003F343F34003400340134033407343F34BD
:101BC0003F343F3400340034003400340034E03417
:101BD000F034F8341C340C340C340C341C34F83429
:101BE000F034E0340034003400340034003407347E
:101BF0000F341F34383430343034303438341F34F8
:101C00000F3407340034003400340034003404341A
:101C1000FC34FC34FC34843484348434FC34FC34AC
:101C2000783400340034003400340034003420347C
:101C30003F343F343F342134013401340134013422
:101C40000034003400340034003400340034E03414
:101C5000F834F8341C340C3404340C341C34F834A8
:101C6000F834E034003400340034003400340734F5
:101C70001F341F34183418345C345E347E347F349F
:101C80007F344734003400340034003400340434EA
:101C9000FC34FC34FC34843484348434FC34FC342C
:101CA00078340034003400340034003400342034FC
:101CB0003F343F343F340134013403343F343F3444
:101CC0003C340034003400340034003400347834C0
:101CD000FC34FC348434843484348434BC343C3464
:101CE00038340034003400340034003400341C3400
:101CF0003C343D3421342134213421343F343F34C9
:101D00001E340034003400340034003400341C34F9
:101D10000C3404340434FC34FC34FC340434043413
:101D20000C341C34003400340034003400340034EB
:101D30000034203420343F343F343F3420342034C6
:101D40000034003400340034003400340034FC34F7
:101D5000FC34FC34003400340034FC34FC34FC34F7
:101D600000340034003400340034003400341F34B4
:101D70003F343F342034203420343F343F341F3448
:101D80000034003400340034003400340034FC34B7
:101D9000FC34FC34003400340034FC34FC34FC34B7
:101DA000003400340034003400340034003407348C
:101DB0000F341F343834303438341F340F34073480
:101DC0000034003400340034003400340034FC3477
:101DD000FC34FC3400340034803400340034FC34EF
:101DE000FC34FC3400340034003400340034033458
:101DF0000F343F343C343C340F343C343C343F34B7
:101E00000F340334003400340034003400341C3404
:101E10003C347C34E034C034E0347C343C341C3416
:101E200000340034003400340034003400343834DA
:101E30003C343E340734033407343E343C343834C5
:101E400000340034003400340034003400347C3476
:101E5000FC34FC34803400348034FC34FC347C3476
:101E600000340034003400340034003400340034D2
:101E7000203421343F343F343F3421342034003483
:101E800000340034003400340034003400343C3476
:101E90001C340C3404348434C434E4347C343C3492
:101EA0001C3400340034003400340034003438343E
:101EB0003C343E3427342334213420343034383415
:101EC0003C34003400340034003400340034003436
:101ED0000034FC34FC34FC3404340434043404345E
:101EE0000034003400340034003400340034003452
:101EF00000343F343F343F34203420342034203405
:101F000000340034003400340034003400341C3415
:101F100038347034E034C034803400340034003459
:101F20000034003400340034003400340034003411
:101F30000034003400340134033407340E341C34CC
:101F40001834303420342034003400340034003469
:101F500000340434043404340434FC34FC34FC34DD
:101F600000340034003400340034003400340034D1
:101F7000003420342034203420343F343F343F3484
:101F80000034003400340034003400340034203491
:101F9000303438341C340E340E341C34383430347D
:101FA0002034003400340034003400340034003471
:101FB0000034003400340034003400340034003481
:101FC0000034003400340034003400340034003471
:101FD0000034003400340034003400340034003461
:101FE00000340034003400340034C034C034C03411
:101FF000C034C034C034C034C034C034C034C03441
:10200000C034C034C034C0340034003400340C3424
:102010000C343C3430343034003400340034003478
:102020000034003400340034003400340034003410
:102030000034003400340034003400340034003400
:1020400000340034003400340034003400340034F0
:1020500040344034403440344034C034C0348034A0
:1020600000340034003400340034003400341C34B4
:102070003E343E342234223422343F341F343F3441
:10208000203400340034003400340034003404348C
:10209000FC34FC34FC34403440344034C034C0346C
:1020A00080340034003400340034003400342034F0
:1020B0003F341F343F342034203420343F343F3405
:1020C0001F340034003400340034003400348034D1
:1020D000C034C034403440344034C034C034803420
:1020E00000340034003400340034003400341F3431
:1020F0003F343F34203420342034393439341934D7
:1021000000340034003400340034003400348034AF
:10211000C034C034403440344434FC34FC34FC34E7
:1021200004340034003400340034003400341F34EC
:102130003F343F342034203420343F341F343F3484
:10214000203400340034003400340034003480344F
:10215000C034C034403440344034C034C03480349F
:1021600000340034003400340034003400341F34B0
:102170003F343F342234223422343B343B341B344A
:10218000003400340034003400340034003480342F
:102190008034F834FC34FC3484349C349C3418345B
:1021A000003400340034003400340034003421346E
:1021B00021343F343F343F3421342134013400345E
:1021C00000340034003400340034003400348034EF
:1021D000C034C034403440344034C0348034C0341F
:1021E00040340034003400340034003400344734C8
:1021F000CF34DF34983498349834FF34FF347F344C
:10220000003400340034003400340034003404342A
:10221000FC34FC34FC34803440344034C034C034AA
:10222000803400340034003400340034003420346E
:102230003F343F343F340134003400343F343F34C2
:102240003F340034003400340034003400340034AF
:10225000403440344034DC34DC34DC34003400348A
:1022600000340034003400340034003400340034CE
:102270002034203420343F343F343F342034203461
:10228000203400340034003400340034003400348E
:1022900000340034403440344034DC34DC34DC344A
:1022A000003400340034003400340034003420346E
:1022B0006034E03480348034C034FF34FF347F3401
:1022C000003400340034003400340034003404346A
:1022D000FC34FC34FC34003400348034C034C0346A
:1022E00040340034003400340034003400342034EE
:1022F0003F343F343F34023407340F343D343834F4
:1023000030340034003400340034003400340034FD
:10231000043404340434FC34FC34FC34003400341D
:10232000003400340034003400340034003400340D
:102330002034203420343F343F343F3420342034A0
:102340002034003400340034003400340034C0340D
:10235000C034C03440344034C03440344034C034DD
:10236000C0348034003400340034003400343F344E
:102370003F343F34003400343F34003400343F34C1
:102380003F343F3400340034003400340034C0346F
:10239000C034C034403440344034C034C03480345D
:1023A00000340034003400340034003400343F344E
:1023B0003F343F340034003400343F343F343F3442
:1023C00000340034003400340034003400348034ED
:1023D000C034C034403440344034C034C03480341D
:1023E00000340034003400340034003400341F342E
:1023F0003F343F342034203420343F343F341F34C2
:1024000000340034003400340034003400344034EC
:10241000C0348034C034403440344034C034C034DC
:10242000803400340034003400340034003480340C
:10243000FF34FF34FF349034103410341F341F3411
:102440000F34003400340034003400348034C0349D
:10245000C034403440344034C0348034C03440341C
:102460000034003400340034003400340F341F349E
:102470001F34103410349034FF34FF34FF34803470
:10248000003400340034003400340034003440346C
:10249000C034C034C0348034C034C034C034C034DC
:1024A00080340034003400340034003400342034EC
:1024B0003F343F343F34213400340034013401349C
:1024C00001340034003400340034003400348034EB
:1024D000C034C0344034403440344034C03480349C
:1024E0000034003400340034003400340034193433
:1024F0003B3423342634263426343C343D341934DA
:1025000000340034003400340034003400344034EB
:102510004034E034F034F834403440344034403413
:10252000003400340034003400340034003400340B
:1025300000341F343F343F342034383438341834B6
:102540000034003400340034003400340034C0342B
:10255000C034C034003400340034C034C034C0341B
:1025600000340034003400340034003400341F34AC
:102570003F343F342034203420343F341F343F3440
:102580002034003400340034003400340034C034CB
:10259000C034C034003400340034C034C034C034DB
:1025A0000034003400340034003400340034073484
:1025B0000F341F343834303438341F340F34073478
:1025C0000034003400340034003400340034C034AB
:1025D000C034C03400340034003400340034C0341B
:1025E000C034C034003400340034003400340734C4
:1025F0000F343F34383438340E34383438343F34C0
:102600000F34073400340034003400340034C03454
:10261000C034C03400340034C034C034C03400345A
:1026200000340034003400340034003400343034DA
:1026300039343F340F340F343F34393430340034BC
:1026400000340034003400340034003400340034EA
:10265000C034C034C034003400340034C034C0341A
:10266000C03400340034003400340034003480348A
:1026700087348F349F34D834F83478343F340F346F
:102680000734003400340034003400340034C034E3
:10269000C034403440344034C034C034C0340034DA
:1026A0000034003400340034003400340034313459
:1026B00038343C342E342734233431343834003425
:1026C00000340034003400340034003400348034EA
:1026D0008034C03478347C343C34043404340434DE
:1026E0000434003400340034003400340034013445
:1026F000013403341E343E343C342034203420343E
:102700002034003400340034003400340034003409
:10271000003400340034FE34FE34FE34003400341F
:102720000034003400340034003400340034003409
:102730000034003400347F347F347F34003400347C
:1027400000340034003400340034003400340434E5
:102750000434043404343C347C347834C03480345D
:102760008034003400340034003400340034203429
:102770002034203420343C343E341E3403340134BD
:1027800001340034003400340034003438343C3434
:102790003C3404340C341C343834303420343C346D
:1027A0003C341C3400340034003400340034003431
:1027B0000034003400340034003400340034003479
:1027C0000034003400340034003400340034003469
:1027D00004340A343A343E347A34D234D034D034E7
:1027E000D034D034D0343034BC343C34AC34AC3459
:1027F000F634F734FF346E34FE34BE347E347E3427
:102800005C349834603400340034003400340034D4
:102810000034003400340034003400340034003418
:102820000034003400340034003400340034003408
:1028300000340034003400340034003400340034F8
:1028400000340034003400348034803480348034E8
:102850000034813481348D348F348834C034503422
:10286000D034C834083408348C340C343A343A3414
:102870004734823487340034A134D0347034F03497
:10288000A034A634A63499348B348E348D348F34EE
:102890000F341B34173417341B340F340F348F3478
:1028A000BE34BB34BF349F34CC348C348F34F634D4
:1028B000F634F634E634BD34FF34B134BD34EE348E
:1028C000C3344C3400340034003400340034003459
:1028D00000340034003418341C34DE347E347B344D
:1028E00039343F347D3478340F340F3403340334B7
:1028F0004134C134E134C134C034C0340034003414
:102900000034003400340034003400340034003427
:102910000034003400340034003400340034003417
:102920000034003400340034003400340034003407
:1029300000340034003400340034003400340034F7
:102940000034623463341D349934C0344234C734A3
:1029500084348434853487340034003480345034F3
:1029600078345134713476347E343F341F34163425
:10297000E334FD34F834E034C034C134C234C234FA
:10298000C234C33481340034013483348334BF34DB
:10299000BF34E634EA34EA34BC34F834F134C334B6
:1029A00042344734813485348534AE34FF34FF34C7
:1029B000F734FF34FF34FE34FE34FF34FB34FD348F
:1029C000D234D034003400340034003400340034C5
:1029D00020343C343434F734FE34F134F534EF34FD
:1029E000FF34BC34B634FE34FC34E634F334E9341A
:1029F000F73497349934FF34F734F334DF34DD346B
:102A0000FC3478347834F83468347834F8347034FA
:102A10007034303410341034103410341034103416
:102A20001034103410341034103410341034103486
:102A30001034103410341034103410341034103476
:102A40001034103410341034103410341034103466
:102A50001034103410341134113411341134103452
:102A60001034103410341034103410341034103446
:102A70001F341F341F341F341134113411341134F6
:102A800011341134113412341234193419342C34F1
:102A90000F341F343F343F346F347F343A343F3483
:102AA00077347734FF34BF34353416341F340B3465
:102AB0001F341F342F343F343F34FF34CF34FF34BE
:102AC000FF342F3425340034003400340034003413
:102AD000003400342034FB34FF34FF34FF34FF343F
:102AE000FF3483348134C134E334E3343334373452
:102AF000E534C73407340F340B341B341F341C3413
:102B00003834F034603460346134613461346134B9
:102B10006034603460346034603460346034603415
:102B20006034603460346034603460346034603405
:102B300060346034E0346034603460346034603475
:102B400060346034603460346034603460346034E5
:102B500060346034603460346034603460346034D5
:102B600060346034603460346034603460346034C5
:102B700060346034603460346034603460346034B5
:102B800060346034603460346034603460346034A5
:102B90006034603460346034603460346034603495
:102BA00060346034603461346334623466346C346D
:102BB000F834F034603460340034FF34FF34FF34D0
:102BC000FF34003400340034003400340034003466
:102BD000023417341D3421342134FF34FF34FF34E0
:102BE000FF34A734A7343A3418347834F834E8344E
:102BF00079347B347A349E3490340034FC349E34FF
:102C00009F347F34603480340E340A340A340A34FA
:102C10000A340A340A340E340034003400340E34DA
:102C20000A340A340A340A340A340E340E340034B6
:102C300000348034FF34F834E834C034C034FE3417
:102C4000FE34FE342234223422342234223422341C
:102C5000FE342234223422342234223422342234E8
:102C6000FE34FE34FE343234003400340034FE349A
:102C70008234BA343A343A3462346234623462347C
:102C80000234FE34003400340034FE34FE34FE34AA
:102C9000FE342234223422342234FE34FE342234F0
:102CA0002234223422342234FE34FE34FE34E03422
:102CB0007F34FF34C234DE347E34FF34FF34FF34DB
:102CC000FF34003400340034003400340034003465
:102CD00000348034803480346034BF34FF347F3437
:102CE000FF34FF34E134C334CF348C3489340834B6
:102CF00008340834083419343F343B340B344F342F
:102D00004F344934E934FE34A834A034A03420349C
:102D10002034203420342034203420342034203413
:102D20002034203420342034203420342034203403
:102D30003C343F3427342F343F343F347D344934DE
:102D40000934E13440344834783478347834793490
:102D5000493441344D345134193479344934793457
:102D60003134713449344934C834C83478347F3408
:102D70005034513440344034403450345034F034C2
:102D8000E0347F34183498349034C934E934F93459
:102D9000F9343834883408349034F1347934783460
:102DA000A034F834F0347034093479343F347F344B
:102DB000783468344D344C347C34FF34FF34FF3481
:102DC000FF34F8340034003400340034003400346C
:102DD0000034003400340034003400340034003453
:102DE0000034003400340034003400340034003443
:102DF0000034003400340034003400340034003433
:102E0000003400340034003401340134033403341A
:102E10000334063406340C340C34183418341034AB
:102E20003034203460346034C034C0348034803472
:102E300000340034003400340034003400340034F2
:102E400000340134003402340234063406340034D1
:102E50000034043400340034023402342234623446
:102E60006234D034D134913491341034103410346D
:102E7000083408340834043406340234013401348C
:102E800000340034003400340034003400340034A2
:102E90000034003400340034003400340034003492
:102EA0000034003400340034003400348034803482
:102EB000C034C034E034E034F834E734EF34FF3465
:102EC00077344334003400340034003400340034A8
:102ED000003400340034803480340034C034C034D2
:102EE000C034C034C034C034C034C034C034C03442
:102EF000C034C034C034C034C034C034C034C03432
:102F0000C0344034403440344034403440344034A1
:102F10004034403440344034403440344034403411
:102F200040344034403460344034403441344134DF
:102F3000633463346234663466346C346C347834AD
:102F400078347834703470342034003400340034F1
:102F500000340034003400340034003400340034D1
:102F600000340034003401340134013403340234B9
:102F7000063406340C340C341834183430343034FD
:102F80003034303430343034303430343034303421
:102F90003034303430343034303430343034303411
:102FA0003034303430343034303430343034303401
:102FB0003034303430343034103410340034003491
:102FC0000034003400340034003400340034003461
:102FD0000034003400340034003400340034003451
:102FE0000034003400340034003400340034003441
:102FF0000034003400340034003400340034003431
:103000000034003400340034003400340034003420
:103010000034003400340034003400340034003410
:103020000034003400340034003400340034003400
:103030000034003400340034003400340034803470
:103040000034403480340034623444340834103462
:103050000034803448348434003400346034203404
:103060000034C03440340034803400340034003440
:1030700000340034003400340034003400340034B0
:1030800000340034003400340034003400340034A0
:103090000034003400340034003400340034003490
:1030A0000034003400340034003400340034003480
:1030B0000034003400340034003400340034003470
:1030C0000034003400340034003400340034003460
:1030D0000034003400340034003400340034003450
:1030E0000034003400340034003400340034003440
:1030F0000034003400340034003400340034003430
:10310000003400340034003400340034003400341F
:10311000003400340034003400340034003400340F
:1031200000340034003400340034003400340034FF
:10313000003400340034803410348434793404345E
:10314000033401348034003400340034003400345B
:103150000034003418341734103400340034003490
:1031600020342034403480348034013422349C3480
:1031700070348034003400340034003400340034BF
:10318000003400340034003400340034003400349F
:10319000003400340034003400340034003400348F
:1031A000003400340034003400340034003400347F
:1031B000003400340034003400340034003400346F
:1031C000003400340034003400340034003400345F
:1031D000003400340034003400340034003400344F
:1031E000003400340034003400340034003400343F
:1031F000003400340034003400348034003440346F
:10320000C0340034603440341034403460342034EE
:1032100080344034003480340034003400340034CE
:1032200000340034203410340034003400340434CA
:1032300000340034003403340034033400340434E4
:1032400004340634083410347034C034003400348C
:10325000003400340034003400340034803420342E
:10326000003400340834013407340634043406349E
:10327000043407340434043400340834083410347B
:103280007034C0340034003400340034003400346E
:1032900000340034F034003400347A347A340034AA
:1032A00040340034023400340434F8340034003440
:1032B000003400340034003400340034003400346E
:1032C000003400340034003400340034003400345E
:1032D00080348034003440348034003460348034AE
:1032E000303460341834183420340C34143412342C
:1032F00006340C34033407340434033403341A34EE
:1033000001341F347D343C343C343C347D34193436
:1033100006340234033405340434023409340C34E2
:10332000063412340A3424343034403460343034B7
:10333000C034C0342034A034C0344034103490340D
:1033400000340834083404340634013400340034C2
:1033500000340034003400340034003401340034CC
:10336000003400340034003400340034203420347D
:1033700020342034203400341034103408340C3419
:103380000634033480348034803400340034C03454
:10339000C0348034FF3400340034073445340834FA
:1033A000C0348734003400348034FF340834E034CF
:1033B000F034F034E034C034C034803400340034AD
:1033C000003400340034003400340034003401345C
:1033D00001340134813401343F3421342134213427
:1033E00021347B343F342534253425343F34BB34F9
:1033F000213421342134393425342334A33427347F
:103400002F343D3439343134213423343F3427349C
:1034100025342D34393439343F343F342134213488
:103420003B347F343F342534253425342F343B342A
:1034300039343134E13421342134213421343F34DE
:1034400021340134C0340034E034203420340034DA
:10345000003400343034303420340034883498342C
:103460009834103480348C344C3448344034003434
:10347000C634E6342434203400340334E334F234E4
:1034800010341034013401340934F834F834003481
:1034900000340434FF34003400348D3488349834DC
:1034A00090343D3401340034DA34FF340034FF34D6
:1034B000FF34FF34FF34FF34FF34FF34FF34FF3474
:1034C000FE34FC34FC34F83400340034003400346E
:1034D0000034003400340034FF340034003400344D
:1034E0000034FF3456340034003400340034FF34E8
:1034F0000034003400340034FF34FF341034AC3472
:10350000F4343E3425342734233422342234E23454
:103510002234223422342334253426343A34E43419
:10352000F8340034FF34FF34003400340034FF3406
:10353000FF3400340034FF340034003400340034ED
:103540000034003400340034FF34023400340034DA
:103550007F344134413400343F343F34003400344C
:10356000203420343F343F3400348034803480347D
:103570009F349F3490349034803480348F348F342F
:1035800088340834483448344034C7344734C0346D
:10359000C03404340F340034103405342134223460
:1035A00026342034303400340F3406340034FF34F1
:1035B000FF34FF34FF34FF34FF34FF34FF34FF3473
:1035C000FF34FF34FF34FF3400340034003400345F
:1035D00000340034403440347F344034403440348C
:1035E00040347F346B3440344034403440347F3492
:1035F00040344034403440347F347F344034543499
:103600007F344034403440344034403440347F349C
:1036100040344034403440344034403440347F34CB
:103620007F3440347F347F344034403440347F34FE
:103630007F34403440347F3440344034403440346C
:10364000403440344034F034FF340034003400342B
:1036500000340134013401340134003400340034C6
:1036600000340034003400340034003400340034BA
:103670000034FF344034FF34FF340034103410344D
:1036800010341034103410341034FF340034FF344C
:10369000FF3400340034003400340034003400348B
:1036A0000034003400340034003400340034FF347B
:1036B0003F34FF340F34FF34FF34FF34FF34FF3422
:1036C000FF34FF34FF34FF3400340034003400345E
:1036D0000034003406340634063406340634063426
:1036E000063406340634063406340634063406340A
:1036F00006340634063406340634063406340634FA
:1037000006340634063406340634063406340634E9
:1037100006340634063406340634063406340634D9
:1037200006340634063406340634063406340634C9
:1037300006340634063406340634063400340034C5
:103740000034003400343F342B34283428342834F7
:103750002834283428342834283428342834283489
:103760002834283428342834283428342834283479
:1037700028342F3420343F343F3420342034203454
:10378000203420342034203420343F3420342F346B
:103790002F34283428342834283428342834283442
:1037A00028342834283428342834283428343F3422
:1037B0002034203420342F343F342F342F343F34FE
:1037C0003F343F343F343F340634083420345F34D0
:1037D0000034003400340034003400340034003449
:1037E00000342F3400340034003400340734003403
:1037F00007340034003414347F3414347F341434E8
:10380000003424342A347F342A34123400342334EC
:103810001334083464346234003436344934553453
:10382000223450340034003405340334003400347E
:10383000003400341C342234413400340034003469
:10384000413422341C3400340034143408343E34FF
:10385000083414340034083408343E34083408344E
:10386000003400340034A0346034003400340834B0
:1038700008340834083408340034003460346034C8
:10388000003400340034203410340834043402345A
:1038900000343E345134493445343E34003400342D
:1038A00042347F3440340034003442346134513483
:1038B0004934463400342134413445344B343134B6
:1038C00000341834143412347F3410340034273464
:1038D000453445344534393400343C344A34493471
:1038E000493430340034013471340934053403343C
:1038F00000343634493449344934363400340634DB
:103900004934493429341E340034003436343634D2
:10391000003400340034003456343634003400347B
:103920000034083414342234413400340034143464
:103930001434143414341434003400344134223434
:103940001434083400340234013451340934063458
:10395000003432344934593451343E3400347C34E8
:103960001234113412347C3400347F3449344934F5
:103970004934363400343E34413441344134223405
:1039800000347F344134413422341C3400347F34D9
:10399000493449344934413400347F3409340934DA
:1039A0000934013400343E344134493449347A34E2
:1039B00000347F340834083408347F340034003451
:1039C00041347F34413400340034203440344134B5
:1039D0003F34013400347F34083414342234413409
:1039E00000347F34403440344034403400347F3439
:1039F00002340C3402347F3400347F34043408340D
:103A000010347F3400343E344134413441343E3448
:103A100000347F34093409340934063400343E3428
:103A20004134513421345E3400347F340934193444
:103A30002934463400344634493449344934313425
:103A40000034013401347F340134013400343F3414
:103A50004034403440343F3400341F342034403448
:103A600020341F3400343F344034383440343F3441
:103A700000346334143408341434633400340734A9
:103A80000834703408340734003461345134493414
:103A900045344334003400347F34413441340034FD
:103AA000AA345534AA345534AA3455340034003479
:103AB000413441347F34003400340434023401345E
:103AC0000234043400344034403440344034403410
:103AD000003400340334053400340034003420341E
:103AE000543454345434783400347F3448344434B7
:103AF0004434383400343834443444344434203486
:103B0000003438344434443448347F340034383456
:103B10005434543454341834003408347E34093462
:103B20000134023400341834A434A434A4347C3472
:103B300000347F34083404340434783400340034DE
:103B400044347D3440340034003440348034843490
:103B50007D34003400347F3410342834443400344D
:103B60000034003441347F344034003400347C3439
:103B7000043418340434783400347C340834043485
:103B800004347834003438344434443444343834DD
:103B90000034FC34243424342434183400341834ED
:103BA000243424341834FC3400347C340834043491
:103BB00004340834003448345434543454342034F5
:103BC000003404343F3444344034203400343C3432
:103BD0004034403420347C3400341C3420344034AD
:103BE00020341C3400343C344034303440343C34D1
:103BF00000344434283410342834443400341C3421
:103C0000A034A034A0347C340034443464345434BC
:103C10004C3444340034003410347C348234003466
:103C2000003400340034FF340034003400340034F5
:103C300082347C34103400340034003406340934C7
:103C4000093406340434063420345F34003400343C
:103C500000340334A0340034C0340C340034F9345C
:103C60004F3480346B34EB34003498348C348034EB
:103C70005234A53480340334003400340134C83461
:103C800080348934C03400345034853400342134D5
:103C9000C2340034083440340034203482340034D8
:103CA00000342034003418348C340034FA342F3487
:103CB00080344B34E03480345A34663480348A346F
:103CC000A5340034E0348F348034EA34AB3400342B
:103CD0007234A93400349A348C340034FA34AF345A
:103CE00080344A34A7340034013440340034093479
:103CF0004034003421344834803451344534003465
:103D00008934423400344234663400347234A63488
:103D100080347A3487348034FA34A53400347234F1
:103D200025340034FA3427340034FA34A83480348B
:103D3000FA348834003472342B340034F8348F343D
:103D400080348B34E83480348B34E8340034F834F5
:103D50008D348034F83420348034F9340F34803496
:103D6000F934CF348034723427340034FA34843454
:103D70000034723427344034FA34853480344A3481
:103D8000A93400348334E8340034F0342F34003460
:103D9000E0346E340034F034EF340034D8348D34F1
:103DA0008034C034EC3400349A34AC34803403347E
:103DB000E8348034C034813480348B34E0340034CF
:103DC000423404340034083420348034023404345F
:103DD0000034313423348034F93423340034313422
:103DE0002434803431342F3480343134623480349C
:103DF0002334EA340034253453348034F934033422
:103E000080340234E03400340634E0340034F834D2
:103E1000423480340334E0340034793487348034DD
:103E20003934033480343134233400347D34233442
:103E3000003431342734C0347834843400342934A5
:103E4000403400344334E4340034703427340034D4
:103E50006034663400347034673400344834C43419
:103E600080347434573480345934E6348034233405
:103E7000E83480340334603400348B34E23400346A
:103E800061340C34003441344234433444344534D6
:103E900046344734483449344A344C344B344C3437
:103EA0004D344E344F3450345134523453345434EE
:103EB000553456345734583459345A340034FE008B
:103EC00012001E000130FE020030FF3B7F087E041E
:103ED000031D602F003440015608F1005508F00022
:103EE000AF31AC279F3170084001DF00FE30510632
:103EF0005204031D7C2F7D2F982F5F08D700D80117
:103F00005708F0005808F1006408D900DA01590890
:103F1000F2005A08F300AF31E1279F3180304001B1
:103F2000DB0070085B02D10071090318890AD20016
:103F3000510A5204031D9D2F9E2FC52F0230F600FB
:103F40000030F7005F08D700D8015708F000580884
:103F5000F1006408D900DA015908F2005A08F300A8
:103F6000AF31E1279F3180304001DB0070085B02F8
:103F7000F80071090318890AF900A23116229F314D
:103F800077084001D2007608D100DE01F92F5E08E3
:103F9000D700D8015708F0005808F1006408D9008C
:103FA000DA015908F2005A08F300AF31E1279F31D6
:103FB000400151087007DC005208713DDD005D08CA
:103FC000B2005C08B1005408B4005308B3005508AF
:103FD0008400560885000008B5008131FB219F311F
:103FE00001304001D5070030D63D0130D7005708D9
:103FF000DE075F085E02031CFE2FFF2FC72F08009D
:10400000430119190428052800281B081F39031D1E
:104010000A280B2800280800F701F8017008770724
:1040200084007108783D85000008F200F030F3004C
:104030002B30F40077087307F5007808743DF6001C
:104040007508860076088700720881000130F7073E
:104050000030F83D04307802003003197702031C69
:10406000322833280E280800603051018D000230BC
:10407000930006304001970092141215F9307E012A
:10408000C30009307D01C80016307E0199000A3056
:104090007D01C90017307E019A000330F5008A3097
:1040A000F4005630890B5228F40B5228F50B522895
:1040B0000030F3000130F2008630F100A030F00053
:1040C000AF316127A031080071084001E30070089A
:1040D000E20070088400710885000008E40071089F
:1040E000F3007008F20001307207840073080318AF
:1040F000730A85000008E5007108F3007008F200FB
:1041000002307207840073080318730A85000008E0
:10411000E6007108F3007008F200033072078400B3
:1041200073080318730A85000008E700E801080017
:1041300040013408803AFB003208803A7B02031DBC
:10414000A328310833020318A628A728C82840014D
:104150003208FD003108FC003408B2003308B10019
:104160007D08B4007C08B300C82840013208A500CF
:104170003108A4003608A7003508A6003708A800B3
:10418000A5312225A03101304001B1070030B23DF8
:1041900040013408803AFB003208803A7B02031D5C
:1041A000D328310833020318D628D728B5280800A9
:1041B00040013408803AFB003208803A7B02031D3C
:1041C000E328310833020318E628E72808294001CC
:1041D0003208FD003108FC003408B2003308B10099
:1041E0007D08B4007C08B300082940013608A5000A
:1041F0003508A4003208A7003108A6003708A80037
:10420000A5312225A03101304001B1070030B23D77
:1042100040013408803AFB003208803A7B02031DDB
:10422000132931083302031816291729F528080025
:1042300040013908B2003808B1003D08B4003C081C
:10424000B3003B08B6003A08B5004008B700A031FB
:104250009820A13140013908B2003808B1003D086A
:10426000B4003C08B3003F08B6003E08B500400863
:10427000B700A0319820A13140013B08B2003A08B4
:10428000B1003F08B4003E08B3003908B600380852
:10429000B5004008B700A031D820A13140013B084B
:1042A000B2003A08B1003F08B4003E08B3003D0830
:1042B000B6003C08B5004008B700A031D820A131B5
:1042C0000800F4012130AF319827A1310030AF311F
:1042D0009827A1317F30AF319827A1312230AF31FB
:1042E0009827A1310030AF319827A1310730AF3185
:1042F0009827A131F501F601AF314D27A131783072
:10430000AF315927A1314030AF315927A131F401E4
:10431000F030F2002B30F300750872078600760843
:10432000733D87000108AF315927A1310130F507EE
:104330000030F63D0130F2007208F40710307402CC
:10434000031CA329A42988290130F5020030F63B7B
:10435000AF315327A1310130F5070030F63D04306D
:104360007602003003197502031CB729B8297C298D
:104370000800FD01DF2900304001B100B20000302B
:10438000B300B4007D08FB00FC017B08B5007C088D
:10439000B600AF314527A131FF3E4001B700FF30E5
:1043A00003180030B800B901B90A80319520A13155
:1043B000A1316121A1310430FB007B08FD07AF3141
:1043C0004927A1317D02031CE629E729BB29FD010C
:1043D0000D2A00304001B100B2000030B300B4003B
:1043E000AF314927A131FF3E4001B500FF3003182E
:1043F0000030B6007D08FB00FC017B08B7007C089C
:10440000B800B901B90A80319520A131A1316121EB
:10441000A1310430FB007B08FD07AF314527A131F6
:104420007D02031C142A152AE92908004001A10174
:10443000F71F1B2A1C2A232AF609F709F60A031973
:10444000F70AA101A10AF91F262A272A302AF8090A
:10445000F909F80A0319F90A0130FA007A08A106E5
:10446000A201A301760877040319372A382A672A9C
:10447000A001A00A442A0130F635F70D890B3C2A29
:104480000130FA007A08A007F71F472A482A3B2A7A
:104490000130A235A30D890B492A77087902031D43
:1044A000532A76087802031C562A572A5C2A760873
:1044B000F8027708F93B22140130F736F60C890B25
:1044C0005D2A0130A002031D662A672A482A2108B6
:1044D00003196B2A6C2A712AA209A309A20A0319DB
:1044E000A30A2308F7002208F6000800E430F000D1
:1044F0009730F100A0310C20A231A1316121A2310D
:104500000630FA001330F900AE30890B852AF90B1A
:10451000852AFA0B852A0130AF318827A231A131D3
:104520006121A2310630FA001330F900AE30890B58
:10453000972AF90B972AFA0B972A0030AF31882770
:10454000A231E430F0009330F100A0310C20A23110
:10455000A1316121A2310630FA001330F900AE30EA
:10456000890BB02AF90BB02AFA0BB02A0130AF310F
:104570008827A231A1316121A2310630FA0013301F
:10458000F900AE30890BC22AF90BC22AFA0BC22AF3
:104590000030AF318827A2310630FA001330F9001D
:1045A000AE30890BD12AF90BD12AFA0BD12A080097
:1045B0004001C801232B0230F6000030F700AF3174
:1045C0004927A2314001C200C3014208F800430854
:1045D000F900A2311622A23177084001C500760801
:1045E000C4000230F6000030F700AF314527A23199
:1045F0004001C200C3014208F8004308F900A2319B
:104600001622A23177084001C7007608C600450887
:10461000B2004408B1004708B4004608B300480897
:10462000C200C3014208B5004308B600B701B70A8B
:10463000A631E126A231A1316121A231053040012C
:10464000C2004208C8070230F6000030F700AF3160
:104650004927A2314001C200C3014208F8004308C3
:10466000F900A2311622A2317708803A803C031D5E
:104670003C2B760840014802031C3F2B402BDB2AD1
:1046800008004001BA01652B0030B100B200AF3123
:104690004927A331FF3E4001B300FF30031800302B
:1046A000B4003A08B800B9013808B5003908B600B6
:1046B000B701B70AA0319820A331A1316121A331FC
:1046C00004304001B8003808BA07AF314527A3319C
:1046D00040013A02031C6D2B6E2B442B0630400127
:1046E000B9001330B800AD30890B742BB80B742BA4
:1046F000B90B742B0032AF316927A331A13161218D
:10470000A3314001BA01A52B0030B100B200AF3196
:104710004527A331FF3E4001B300FF3003180030AE
:10472000B4003A08B800B9013808B5003908B60035
:10473000B701B70AA031D820A331A1316121A3313B
:1047400004304001B8003808BA07AF314927A33117
:1047500040013A02031CAD2BAE2B842B0800E43041
:10476000F0009B30F100A0316420A3310030400103
:10477000D100D2000030D300D4003130D500B030A9
:10478000D6009F316B27A33100304001D100D20009
:104790000830D3000030D4001B30D500B030D60034
:1047A0009F316B27A331A1316121A3310630FC0079
:1047B0001330FB00AE30890BDB2BFB0BDB2BFC0B30
:1047C000DB2B00304001D100D2001030D30000308C
:1047D000D4004730D500B030D6009F316B27A331CD
:1047E00000304001D100D2001830D3000030D40096
:1047F0001530D500B030D6009F316B27A331A131E1
:104800006121A331AF316927A3310630FC00133099
:10481000FB00AE30890B0A2CFB0B0A2CFC0B0A2C7C
:104820002230F0009E30F100A0316420A33100302E
:104830004001D100D2000030D300D4004330D50075
:104840009F30D6009F316B27A33100304001D1004B
:10485000D2000830D3000030D4000030D500B03092
:10486000D6009F316B27A33100304001D100D20028
:104870001030D3000030D4005D30D500B030D60009
:104880009F316B27A331A1316121A3310630FC0098
:104890001330FB00AE30890B4B2CFB0B4B2CFC0B6D
:1048A0004B2CAF316927A331A1316121A33108001D
:1048B0004001CD01AA2C40014D08C100C2014108B0
:1048C000B8004208B9004D08C300C4014308BA004B
:1048D0004408BB00AF314927A4314001C500C601DF
:1048E0004608C8004D084502C700031CC803470816
:1048F000FF3EBC00FF30483DBD00AF314527A4312D
:104900004001C900CA014A08CC004D084902CB0049
:10491000031CCC034B08FF3EBE00FF304C3DBF00E4
:10492000C001C00AA1311821A431A1316121A431F3
:1049300002304001C2004530C100A930890B9E2CD5
:10494000C10B9E2CC20B9E2C003202304001C100D4
:104950004108CD070230F6000030F700AF3145279F
:10496000A4314001C100C2014108F8004208F90029
:10497000A2311622A4317708803A803C031DC32C53
:10498000760840014D02031CC62CC72C5B2C063058
:104990004001C2001330C100AD30890BCD2CC10BDA
:1049A000CD2CC20BCD2C0032AF316927A431A131FF
:1049B0006121A4310230F6000030F700AF31452705
:1049C000A4314001C100C2014108F8004208F900C9
:1049D000A2311622A43176084001CD004D08031DF6
:1049E000F22CF32CF42C212D4D08C100C2014108FA
:1049F000B8004208B9004D08C300C4014308BA001A
:104A00004408BB00AF314927A4314001C5004D081F
:104A10004502BC00BD01031CBD03AF314527A431D5
:104A20004001C6004D084602BE00BF01031CBF0383
:104A3000C001C00AA1311821A43101304001CD02CA
:104A4000EE2C08004001A51B262D272DF72D8031C7
:104A50000420A5314001A9002508803AAA00803031
:104A60002A02031D352D290824020318382D392D5B
:104A7000F72D4001A71B3D2D3E2DF72DAF314327CC
:104A8000A5314001A9002708803AAA0080302A02F7
:104A9000031D4C2D29082602031C4F2D502DEB2DF4
:104AA000F72D0130A90026080739890A582DA935A4
:104AB000890B572D2908AA000830F6000030F700AE
:104AC0002708F9002608F800A2311622A531760839
:104AD0004001AB007708AC000730AB35AC0D890B5B
:104AE0006D2DF030AD002B30AE002B082D07AF0040
:104AF0002C082E3DB00024082F0786002508303DE5
:104B000087002A088104F72D0130A90026080739FB
:104B1000890A8B2DA935890B8A2D2908FF3AAA000D
:104B20000830F6000030F7002708F9002608F800E2
:104B3000A2311622A53176084001AB007708AC00FF
:104B40000730AB35AC0D890BA12DF030AD002B300B
:104B5000AE002B082D07AF002C082E3DB000240816
:104B60002F0786002508303D87002A088105F72D8C
:104B70000130A90026080739890ABF2DA935890BFC
:104B8000BE2D2908AA000830F6000030F7002708DB
:104B9000F9002608F800A2311622A5317608400156
:104BA000AB007708AC000730AB35AC0D890BD42DCA
:104BB000F030AD002B30AE002B082D07AF002C08D5
:104BC0002E3DB00024082F0786002508303D8700C1
:104BD0002A088106F72D40012808003A0319842D80
:104BE000013A0319512D033A0319B82DF72D080086
:104BF00082304001E000DD30890BFC2DE00BFC2D04
:104C00000032A0313420A53103304001E1008A3068
:104C1000E0005530890B0A2EE00B0A2EE10B0A2E1C
:104C2000003280311720A53182304001E000DD30B4
:104C3000890B182EE00B182E0032AF316927A531F1
:104C4000A1316121A53106304001E1001330E000BF
:104C5000AD30890B292EE00B292EE10B292E0032D5
:104C6000AF317827A531A1316121A531063040014E
:104C7000E1001330E000AD30890B3C2EE00B3C2E00
:104C8000E10B3C2E0032AF316927A5310A304001DB
:104C9000A4000030A5000A30A6000030A700A8013B
:104CA000A80AA5312225A531A1316121A5310630FF
:104CB0004001E1001330E000AD30890B5D2EE00BC8
:104CC0005D2EE10B5D2E0032AF316927A531A13198
:104CD000B921A531A1316121A53106304001E100A2
:104CE0001330E000AD30890B732EE00B732EE10B17
:104CF000732E0032AF316927A531A3314123A5318D
:104D0000A1316121A53106304001E1001330E000FE
:104D1000AD30890B892EE00B892EE10B892E0032F4
:104D2000AF316927A531A4315824A531A1316121C2
:104D3000A53106304001E1001330E000AD30890BB1
:104D40009F2EE00B9F2EE10B9F2E0032AF31692783
:104D5000A531A231D822A531A1316121A53106307A
:104D60004001E1001330E000AD30890BB52EE00BBF
:104D7000B52EE10BB52E0032AF316927A531A33135
:104D8000AF23A531A1316121A53106304001E100F9
:104D90001330E000AD30890BCB2EE00BCB2EE10BB6
:104DA000CB2E0032AF316927A531A1316121A53168
:104DB000A2317622A531A1316121A531D82E8031D1
:104DC00002280130FB00400135087B02BC00360997
:104DD0000318890ABD000130B8000030B900360858
:104DE000FC003508FB00FB35FC0DFB09FC09FB0A48
:104DF0000319FC0A7B08BA007C08BB00BE01BF0196
:104E00003608C1003508C0003208A5003108A400EA
:104E100035083307A6003608343DA7003708A80038
:104E2000A5312225A63140013208A5003108A40091
:104E300035083302A6003608343BA7003708A8001F
:104E4000A5312225A631400135083107A4003608D6
:104E5000323DA5003408A7003308A6003708A80093
:104E6000A5312225A631400135083102A4003608BB
:104E7000323BA5003408A7003308A6003708A80075
:104E8000A5312225A631F02F4001BD1B482F492F07
:104E9000552FFF30C007FF30C13D0230BA07003048
:104EA000BB3D3A08BC073B08BD3D0130BE070030A2
:104EB000BF3D0230B8070030B93D3808BC0739089B
:104EC000BD3D3E083107A4003F08323DA500400823
:104ED0003307A6004108343DA7003708A800A531D4
:104EE0002225A63140013E083102A4003F08323B92
:104EF000A50040083307A6004108343DA700370845
:104F0000A800A5312225A63140013E083107A400A2
:104F10003F08323DA50040083302A6004108343B5B
:104F2000A7003708A800A5312225A63140013E0878
:104F30003102A4003F08323BA50040083302A6001E
:104F40004108343BA7003708A800A5312225A63127
:104F5000400140083107A4004108323DA5003E0849
:104F60003307A6003F08343DA7003708A800A53145
:104F70002225A631400140083102A4004108323BFD
:104F8000A5003E083307A6003F08343DA7003708B8
:104F9000A800A5312225A631400140083107A40010
:104FA0004108323DA5003E083302A6003F08343BCD
:104FB000A7003708A800A5312225A63140014008E6
:104FC0003102A4004108323BA5003E083302A6008E
:104FD0003F08343BA7003708A800A5312225A63199
:104FE00040013F08803AFB004108803A7B02031DE4
:104FF000FB2F40083E02031CFE2FFF2F442F08000A
:105E860040300800AF314327AF310800803104208D
:105E9600AF310800A0310020AF3143011B140800C8
:105EA600A0310020AF3143011B150800F000A031DE
:105EB6000020AF31700843019600080028304301E6
:105EC6009A009B010930970099010800F030F00014
:105ED6002B30F1000030F200F3000030F400043003
:105EE600F500AF31C527AF310800F030F0002B3098
:105EF600F100FF30F2000030F3000030F40004300F
:105F0600F500AF31C527AF310800F200720803195A
:105F16008D2F8E2F932FA730AF319827AF31972F24
:105F2600A630AF319827AF310800F100AF314D27C9
:105F3600AF317830AF315927AF310030AF31592703
:105F4600AF317108AF315927AF31AF315327AF3178
:105F560008007108F4007008F300B52F0130F0074F
:105F66000030F13D70088400710885001200031DA1
:105F7600BD2FBE2FB12F73087002F0007408713B5D
:105F8600F10008007108F7007008F600D42F7608B3
:105F9600860077088700720881000130F607003016
:105FA600F73D0130F4020030F53B740A031DDF2F84
:105FB600750A031DDF2FE02FCA2F0800F401F50133
:105FC600701CE62FE72FEB2F7208F4077308F53DD8
:105FD6000130F235F30D890BEC2F0130F136F00C60
:105FE600890BF12F70087104031DFA2FFB2FE32F85
:105FF6007508F1007408F0000800613462346334F7
:106006006434653466346734683469346A346B34AE
:106016006C346D346E346F3470347134723473345E
:106026007434753476347734783479347A34003489
:1060360056345734583459345A343034313432346F
:1060460033343434353436343734383439347E34B2
:10605600213440342334243425340034413442344A
:1060660043344434453446344734483449344A3456
:106076004B344C344D344E344F3450345134523406
:1060860053345434553400346134623463346434E4
:10609600653466346734683469346A346B346C3416
:1060A6006D346E346F3470347134723473347434C6
:1060B6007534003430343134323433343434353496
:0A60C60036343734383439340034EE
:020000040001F9
:0A000E008F3FFF3F9F3FFF3FFF3F82
:00000001FF
